{
  "_format": "hh-sol-artifact-1",
  "contractName": "MyToken",
  "sourceName": "contracts/ERC20Votes.sol",
  "abi": [
    {
      "inputs": [],
      "stateMutability": "nonpayable",
      "type": "constructor"
    },
    {
      "anonymous": false,
      "inputs": [
        {
          "indexed": true,
          "internalType": "address",
          "name": "owner",
          "type": "address"
        },
        {
          "indexed": true,
          "internalType": "address",
          "name": "spender",
          "type": "address"
        },
        {
          "indexed": false,
          "internalType": "uint256",
          "name": "value",
          "type": "uint256"
        }
      ],
      "name": "Approval",
      "type": "event"
    },
    {
      "anonymous": false,
      "inputs": [
        {
          "indexed": true,
          "internalType": "address",
          "name": "delegator",
          "type": "address"
        },
        {
          "indexed": true,
          "internalType": "address",
          "name": "fromDelegate",
          "type": "address"
        },
        {
          "indexed": true,
          "internalType": "address",
          "name": "toDelegate",
          "type": "address"
        }
      ],
      "name": "DelegateChanged",
      "type": "event"
    },
    {
      "anonymous": false,
      "inputs": [
        {
          "indexed": true,
          "internalType": "address",
          "name": "delegate",
          "type": "address"
        },
        {
          "indexed": false,
          "internalType": "uint256",
          "name": "previousBalance",
          "type": "uint256"
        },
        {
          "indexed": false,
          "internalType": "uint256",
          "name": "newBalance",
          "type": "uint256"
        }
      ],
      "name": "DelegateVotesChanged",
      "type": "event"
    },
    {
      "anonymous": false,
      "inputs": [
        {
          "indexed": true,
          "internalType": "bytes32",
          "name": "role",
          "type": "bytes32"
        },
        {
          "indexed": true,
          "internalType": "bytes32",
          "name": "previousAdminRole",
          "type": "bytes32"
        },
        {
          "indexed": true,
          "internalType": "bytes32",
          "name": "newAdminRole",
          "type": "bytes32"
        }
      ],
      "name": "RoleAdminChanged",
      "type": "event"
    },
    {
      "anonymous": false,
      "inputs": [
        {
          "indexed": true,
          "internalType": "bytes32",
          "name": "role",
          "type": "bytes32"
        },
        {
          "indexed": true,
          "internalType": "address",
          "name": "account",
          "type": "address"
        },
        {
          "indexed": true,
          "internalType": "address",
          "name": "sender",
          "type": "address"
        }
      ],
      "name": "RoleGranted",
      "type": "event"
    },
    {
      "anonymous": false,
      "inputs": [
        {
          "indexed": true,
          "internalType": "bytes32",
          "name": "role",
          "type": "bytes32"
        },
        {
          "indexed": true,
          "internalType": "address",
          "name": "account",
          "type": "address"
        },
        {
          "indexed": true,
          "internalType": "address",
          "name": "sender",
          "type": "address"
        }
      ],
      "name": "RoleRevoked",
      "type": "event"
    },
    {
      "anonymous": false,
      "inputs": [
        {
          "indexed": true,
          "internalType": "address",
          "name": "from",
          "type": "address"
        },
        {
          "indexed": true,
          "internalType": "address",
          "name": "to",
          "type": "address"
        },
        {
          "indexed": false,
          "internalType": "uint256",
          "name": "value",
          "type": "uint256"
        }
      ],
      "name": "Transfer",
      "type": "event"
    },
    {
      "inputs": [],
      "name": "DEFAULT_ADMIN_ROLE",
      "outputs": [
        {
          "internalType": "bytes32",
          "name": "",
          "type": "bytes32"
        }
      ],
      "stateMutability": "view",
      "type": "function"
    },
    {
      "inputs": [],
      "name": "DOMAIN_SEPARATOR",
      "outputs": [
        {
          "internalType": "bytes32",
          "name": "",
          "type": "bytes32"
        }
      ],
      "stateMutability": "view",
      "type": "function"
    },
    {
      "inputs": [],
      "name": "MINTER_ROLE",
      "outputs": [
        {
          "internalType": "bytes32",
          "name": "",
          "type": "bytes32"
        }
      ],
      "stateMutability": "view",
      "type": "function"
    },
    {
      "inputs": [
        {
          "internalType": "address",
          "name": "owner",
          "type": "address"
        },
        {
          "internalType": "address",
          "name": "spender",
          "type": "address"
        }
      ],
      "name": "allowance",
      "outputs": [
        {
          "internalType": "uint256",
          "name": "",
          "type": "uint256"
        }
      ],
      "stateMutability": "view",
      "type": "function"
    },
    {
      "inputs": [
        {
          "internalType": "address",
          "name": "spender",
          "type": "address"
        },
        {
          "internalType": "uint256",
          "name": "amount",
          "type": "uint256"
        }
      ],
      "name": "approve",
      "outputs": [
        {
          "internalType": "bool",
          "name": "",
          "type": "bool"
        }
      ],
      "stateMutability": "nonpayable",
      "type": "function"
    },
    {
      "inputs": [
        {
          "internalType": "address",
          "name": "account",
          "type": "address"
        }
      ],
      "name": "balanceOf",
      "outputs": [
        {
          "internalType": "uint256",
          "name": "",
          "type": "uint256"
        }
      ],
      "stateMutability": "view",
      "type": "function"
    },
    {
      "inputs": [],
      "name": "buyTokens",
      "outputs": [],
      "stateMutability": "payable",
      "type": "function"
    },
    {
      "inputs": [
        {
          "internalType": "address",
          "name": "account",
          "type": "address"
        },
        {
          "internalType": "uint32",
          "name": "pos",
          "type": "uint32"
        }
      ],
      "name": "checkpoints",
      "outputs": [
        {
          "components": [
            {
              "internalType": "uint32",
              "name": "fromBlock",
              "type": "uint32"
            },
            {
              "internalType": "uint224",
              "name": "votes",
              "type": "uint224"
            }
          ],
          "internalType": "struct ERC20Votes.Checkpoint",
          "name": "",
          "type": "tuple"
        }
      ],
      "stateMutability": "view",
      "type": "function"
    },
    {
      "inputs": [],
      "name": "decimals",
      "outputs": [
        {
          "internalType": "uint8",
          "name": "",
          "type": "uint8"
        }
      ],
      "stateMutability": "view",
      "type": "function"
    },
    {
      "inputs": [
        {
          "internalType": "address",
          "name": "spender",
          "type": "address"
        },
        {
          "internalType": "uint256",
          "name": "subtractedValue",
          "type": "uint256"
        }
      ],
      "name": "decreaseAllowance",
      "outputs": [
        {
          "internalType": "bool",
          "name": "",
          "type": "bool"
        }
      ],
      "stateMutability": "nonpayable",
      "type": "function"
    },
    {
      "inputs": [
        {
          "internalType": "address",
          "name": "delegatee",
          "type": "address"
        }
      ],
      "name": "delegate",
      "outputs": [],
      "stateMutability": "nonpayable",
      "type": "function"
    },
    {
      "inputs": [
        {
          "internalType": "address",
          "name": "delegatee",
          "type": "address"
        },
        {
          "internalType": "uint256",
          "name": "nonce",
          "type": "uint256"
        },
        {
          "internalType": "uint256",
          "name": "expiry",
          "type": "uint256"
        },
        {
          "internalType": "uint8",
          "name": "v",
          "type": "uint8"
        },
        {
          "internalType": "bytes32",
          "name": "r",
          "type": "bytes32"
        },
        {
          "internalType": "bytes32",
          "name": "s",
          "type": "bytes32"
        }
      ],
      "name": "delegateBySig",
      "outputs": [],
      "stateMutability": "nonpayable",
      "type": "function"
    },
    {
      "inputs": [
        {
          "internalType": "address",
          "name": "account",
          "type": "address"
        }
      ],
      "name": "delegates",
      "outputs": [
        {
          "internalType": "address",
          "name": "",
          "type": "address"
        }
      ],
      "stateMutability": "view",
      "type": "function"
    },
    {
      "inputs": [
        {
          "internalType": "uint256",
          "name": "blockNumber",
          "type": "uint256"
        }
      ],
      "name": "getPastTotalSupply",
      "outputs": [
        {
          "internalType": "uint256",
          "name": "",
          "type": "uint256"
        }
      ],
      "stateMutability": "view",
      "type": "function"
    },
    {
      "inputs": [
        {
          "internalType": "address",
          "name": "account",
          "type": "address"
        },
        {
          "internalType": "uint256",
          "name": "blockNumber",
          "type": "uint256"
        }
      ],
      "name": "getPastVotes",
      "outputs": [
        {
          "internalType": "uint256",
          "name": "",
          "type": "uint256"
        }
      ],
      "stateMutability": "view",
      "type": "function"
    },
    {
      "inputs": [
        {
          "internalType": "bytes32",
          "name": "role",
          "type": "bytes32"
        }
      ],
      "name": "getRoleAdmin",
      "outputs": [
        {
          "internalType": "bytes32",
          "name": "",
          "type": "bytes32"
        }
      ],
      "stateMutability": "view",
      "type": "function"
    },
    {
      "inputs": [
        {
          "internalType": "address",
          "name": "account",
          "type": "address"
        }
      ],
      "name": "getVotes",
      "outputs": [
        {
          "internalType": "uint256",
          "name": "",
          "type": "uint256"
        }
      ],
      "stateMutability": "view",
      "type": "function"
    },
    {
      "inputs": [
        {
          "internalType": "bytes32",
          "name": "role",
          "type": "bytes32"
        },
        {
          "internalType": "address",
          "name": "account",
          "type": "address"
        }
      ],
      "name": "grantRole",
      "outputs": [],
      "stateMutability": "nonpayable",
      "type": "function"
    },
    {
      "inputs": [
        {
          "internalType": "bytes32",
          "name": "role",
          "type": "bytes32"
        },
        {
          "internalType": "address",
          "name": "account",
          "type": "address"
        }
      ],
      "name": "hasRole",
      "outputs": [
        {
          "internalType": "bool",
          "name": "",
          "type": "bool"
        }
      ],
      "stateMutability": "view",
      "type": "function"
    },
    {
      "inputs": [
        {
          "internalType": "address",
          "name": "spender",
          "type": "address"
        },
        {
          "internalType": "uint256",
          "name": "addedValue",
          "type": "uint256"
        }
      ],
      "name": "increaseAllowance",
      "outputs": [
        {
          "internalType": "bool",
          "name": "",
          "type": "bool"
        }
      ],
      "stateMutability": "nonpayable",
      "type": "function"
    },
    {
      "inputs": [
        {
          "internalType": "address",
          "name": "to",
          "type": "address"
        },
        {
          "internalType": "uint256",
          "name": "amount",
          "type": "uint256"
        }
      ],
      "name": "mint",
      "outputs": [],
      "stateMutability": "nonpayable",
      "type": "function"
    },
    {
      "inputs": [],
      "name": "name",
      "outputs": [
        {
          "internalType": "string",
          "name": "",
          "type": "string"
        }
      ],
      "stateMutability": "view",
      "type": "function"
    },
    {
      "inputs": [
        {
          "internalType": "address",
          "name": "owner",
          "type": "address"
        }
      ],
      "name": "nonces",
      "outputs": [
        {
          "internalType": "uint256",
          "name": "",
          "type": "uint256"
        }
      ],
      "stateMutability": "view",
      "type": "function"
    },
    {
      "inputs": [
        {
          "internalType": "address",
          "name": "account",
          "type": "address"
        }
      ],
      "name": "numCheckpoints",
      "outputs": [
        {
          "internalType": "uint32",
          "name": "",
          "type": "uint32"
        }
      ],
      "stateMutability": "view",
      "type": "function"
    },
    {
      "inputs": [
        {
          "internalType": "address",
          "name": "owner",
          "type": "address"
        },
        {
          "internalType": "address",
          "name": "spender",
          "type": "address"
        },
        {
          "internalType": "uint256",
          "name": "value",
          "type": "uint256"
        },
        {
          "internalType": "uint256",
          "name": "deadline",
          "type": "uint256"
        },
        {
          "internalType": "uint8",
          "name": "v",
          "type": "uint8"
        },
        {
          "internalType": "bytes32",
          "name": "r",
          "type": "bytes32"
        },
        {
          "internalType": "bytes32",
          "name": "s",
          "type": "bytes32"
        }
      ],
      "name": "permit",
      "outputs": [],
      "stateMutability": "nonpayable",
      "type": "function"
    },
    {
      "inputs": [
        {
          "internalType": "bytes32",
          "name": "role",
          "type": "bytes32"
        },
        {
          "internalType": "address",
          "name": "account",
          "type": "address"
        }
      ],
      "name": "renounceRole",
      "outputs": [],
      "stateMutability": "nonpayable",
      "type": "function"
    },
    {
      "inputs": [
        {
          "internalType": "bytes32",
          "name": "role",
          "type": "bytes32"
        },
        {
          "internalType": "address",
          "name": "account",
          "type": "address"
        }
      ],
      "name": "revokeRole",
      "outputs": [],
      "stateMutability": "nonpayable",
      "type": "function"
    },
    {
      "inputs": [
        {
          "internalType": "bytes4",
          "name": "interfaceId",
          "type": "bytes4"
        }
      ],
      "name": "supportsInterface",
      "outputs": [
        {
          "internalType": "bool",
          "name": "",
          "type": "bool"
        }
      ],
      "stateMutability": "view",
      "type": "function"
    },
    {
      "inputs": [],
      "name": "symbol",
      "outputs": [
        {
          "internalType": "string",
          "name": "",
          "type": "string"
        }
      ],
      "stateMutability": "view",
      "type": "function"
    },
    {
      "inputs": [],
      "name": "totalSupply",
      "outputs": [
        {
          "internalType": "uint256",
          "name": "",
          "type": "uint256"
        }
      ],
      "stateMutability": "view",
      "type": "function"
    },
    {
      "inputs": [
        {
          "internalType": "address",
          "name": "to",
          "type": "address"
        },
        {
          "internalType": "uint256",
          "name": "amount",
          "type": "uint256"
        }
      ],
      "name": "transfer",
      "outputs": [
        {
          "internalType": "bool",
          "name": "",
          "type": "bool"
        }
      ],
      "stateMutability": "nonpayable",
      "type": "function"
    },
    {
      "inputs": [
        {
          "internalType": "address",
          "name": "from",
          "type": "address"
        },
        {
          "internalType": "address",
          "name": "to",
          "type": "address"
        },
        {
          "internalType": "uint256",
          "name": "amount",
          "type": "uint256"
        }
      ],
      "name": "transferFrom",
      "outputs": [
        {
          "internalType": "bool",
          "name": "",
          "type": "bool"
        }
      ],
      "stateMutability": "nonpayable",
      "type": "function"
    },
    {
      "inputs": [],
      "name": "withdraw",
      "outputs": [],
      "stateMutability": "nonpayable",
      "type": "function"
    }
  ],
  "bytecode": "0x6101406040523480156200001257600080fd5b506040518060400160405280600781526020016626bcaa37b5b2b760c91b81525080604051806040016040528060018152602001603160f81b8152506040518060400160405280600781526020016626bcaa37b5b2b760c91b81525060405180604001604052806002815260200161473560f01b81525081600390816200009a9190620002c6565b506004620000a98282620002c6565b5050825160209384012082519284019290922060e08390526101008190524660a0818152604080517f8b73c3c69bb8fe3d512ecc4cf759cc79239f7b179b0ffacaa9a75d522b39400f818901819052818301979097526060810194909452608080850193909352308483018190528151808603909301835260c09485019091528151919096012090529290925261012052506200014a90506000336200017c565b620001767f9f2df0fed2c77648de5860a4cc508cd0818c85b8b8a1ab4ceeef8d981c8956a6336200017c565b62000392565b60008281526005602090815260408083206001600160a01b038516845290915290205460ff166200021d5760008281526005602090815260408083206001600160a01b03851684529091529020805460ff19166001179055620001dc3390565b6001600160a01b0316816001600160a01b0316837f2f8788117e7eff1d82e926ec794901d17c78024a50270940304540a733656f0d60405160405180910390a45b5050565b634e487b7160e01b600052604160045260246000fd5b600181811c908216806200024c57607f821691505b6020821081036200026d57634e487b7160e01b600052602260045260246000fd5b50919050565b601f821115620002c157600081815260208120601f850160051c810160208610156200029c5750805b601f850160051c820191505b81811015620002bd57828155600101620002a8565b5050505b505050565b81516001600160401b03811115620002e257620002e262000221565b620002fa81620002f3845462000237565b8462000273565b602080601f831160018114620003325760008415620003195750858301515b600019600386901b1c1916600185901b178555620002bd565b600085815260208120601f198616915b82811015620003635788860151825594840194600190910190840162000342565b5085821015620003825787850151600019600388901b60f8161c191681555b5050505050600190811b01905550565b60805160a05160c05160e051610100516101205161280a620003e26000396000611497015260006114e6015260006114c10152600061141a015260006114440152600061146e015261280a6000f3fe6080604052600436106101fe5760003560e01c80636fcfff451161011d578063a457c2d7116100b0578063d505accf1161007f578063d547741f11610064578063d547741f14610639578063dd62ed3e14610659578063f1127ed81461069f57600080fd5b8063d505accf146105e5578063d53913931461060557600080fd5b8063a457c2d71461057d578063a9059cbb1461059d578063c3cda520146105bd578063d0febe4c146105dd57600080fd5b806391d14854116100ec57806391d14854146104ed57806395d89b41146105335780639ab24eb014610548578063a217fddf1461056857600080fd5b80636fcfff451461044257806370a08231146104775780637ecebe00146104ad5780638e539e8c146104cd57600080fd5b80633644e515116101955780633ccfd60b116101645780633ccfd60b1461039c57806340c10f19146103b1578063587cde1e146103d15780635c19a95c1461042257600080fd5b80633644e5151461032757806336568abe1461033c578063395093511461035c5780633a46b1a81461037c57600080fd5b806323b872dd116101d157806323b872dd14610299578063248a9ca3146102b95780632f2ff15d146102e9578063313ce5671461030b57600080fd5b806301ffc9a71461020357806306fdde0314610238578063095ea7b31461025a57806318160ddd1461027a575b600080fd5b34801561020f57600080fd5b5061022361021e366004612383565b6106e9565b60405190151581526020015b60405180910390f35b34801561024457600080fd5b5061024d610782565b60405161022f91906123e9565b34801561026657600080fd5b50610223610275366004612438565b610814565b34801561028657600080fd5b506002545b60405190815260200161022f565b3480156102a557600080fd5b506102236102b4366004612462565b61082c565b3480156102c557600080fd5b5061028b6102d436600461249e565b60009081526005602052604090206001015490565b3480156102f557600080fd5b506103096103043660046124b7565b610850565b005b34801561031757600080fd5b506040516012815260200161022f565b34801561033357600080fd5b5061028b61087a565b34801561034857600080fd5b506103096103573660046124b7565b610889565b34801561036857600080fd5b50610223610377366004612438565b61091a565b34801561038857600080fd5b5061028b610397366004612438565b610959565b3480156103a857600080fd5b506103096109d3565b3480156103bd57600080fd5b506103096103cc366004612438565b610a0a565b3480156103dd57600080fd5b5061040a6103ec3660046124e3565b6001600160a01b039081166000908152600860205260409020541690565b6040516001600160a01b03909116815260200161022f565b34801561042e57600080fd5b5061030961043d3660046124e3565b610a3e565b34801561044e57600080fd5b5061046261045d3660046124e3565b610a4b565b60405163ffffffff909116815260200161022f565b34801561048357600080fd5b5061028b6104923660046124e3565b6001600160a01b031660009081526020819052604090205490565b3480156104b957600080fd5b5061028b6104c83660046124e3565b610a6d565b3480156104d957600080fd5b5061028b6104e836600461249e565b610a8b565b3480156104f957600080fd5b506102236105083660046124b7565b60009182526005602090815260408084206001600160a01b0393909316845291905290205460ff1690565b34801561053f57600080fd5b5061024d610ae7565b34801561055457600080fd5b5061028b6105633660046124e3565b610af6565b34801561057457600080fd5b5061028b600081565b34801561058957600080fd5b50610223610598366004612438565b610b7d565b3480156105a957600080fd5b506102236105b8366004612438565b610c27565b3480156105c957600080fd5b506103096105d836600461250f565b610c35565b610309610d6b565b3480156105f157600080fd5b50610309610600366004612567565b610d77565b34801561061157600080fd5b5061028b7f9f2df0fed2c77648de5860a4cc508cd0818c85b8b8a1ab4ceeef8d981c8956a681565b34801561064557600080fd5b506103096106543660046124b7565b610edb565b34801561066557600080fd5b5061028b6106743660046125d1565b6001600160a01b03918216600090815260016020908152604080832093909416825291909152205490565b3480156106ab57600080fd5b506106bf6106ba3660046125fb565b610f00565b60408051825163ffffffff1681526020928301516001600160e01b0316928101929092520161022f565b60007fffffffff0000000000000000000000000000000000000000000000000000000082167f7965db0b00000000000000000000000000000000000000000000000000000000148061077c57507f01ffc9a7000000000000000000000000000000000000000000000000000000007fffffffff000000000000000000000000000000000000000000000000000000008316145b92915050565b6060600380546107919061263b565b80601f01602080910402602001604051908101604052809291908181526020018280546107bd9061263b565b801561080a5780601f106107df5761010080835404028352916020019161080a565b820191906000526020600020905b8154815290600101906020018083116107ed57829003601f168201915b5050505050905090565b600033610822818585610f84565b5060019392505050565b60003361083a8582856110dc565b61084585858561116e565b506001949350505050565b60008281526005602052604090206001015461086b81611361565b610875838361136b565b505050565b600061088461140d565b905090565b6001600160a01b038116331461090c5760405162461bcd60e51b815260206004820152602f60248201527f416363657373436f6e74726f6c3a2063616e206f6e6c792072656e6f756e636560448201527f20726f6c657320666f722073656c66000000000000000000000000000000000060648201526084015b60405180910390fd5b6109168282611534565b5050565b3360008181526001602090815260408083206001600160a01b03871684529091528120549091906108229082908690610954908790612685565b610f84565b60004382106109aa5760405162461bcd60e51b815260206004820152601f60248201527f4552433230566f7465733a20626c6f636b206e6f7420796574206d696e6564006044820152606401610903565b6001600160a01b03831660009081526009602052604090206109cc90836115b7565b9392505050565b60006109de81611361565b60405133904780156108fc02916000818181858888f19350505050158015610916573d6000803e3d6000fd5b7f9f2df0fed2c77648de5860a4cc508cd0818c85b8b8a1ab4ceeef8d981c8956a6610a3481611361565b61087583836116ae565b610a4833826116b8565b50565b6001600160a01b03811660009081526009602052604081205461077c90611749565b6001600160a01b03811660009081526006602052604081205461077c565b6000438210610adc5760405162461bcd60e51b815260206004820152601f60248201527f4552433230566f7465733a20626c6f636b206e6f7420796574206d696e6564006044820152606401610903565b61077c600a836115b7565b6060600480546107919061263b565b6001600160a01b0381166000908152600960205260408120548015610b6a576001600160a01b0383166000908152600960205260409020610b38600183612698565b81548110610b4857610b486126ab565b60009182526020909120015464010000000090046001600160e01b0316610b6d565b60005b6001600160e01b03169392505050565b3360008181526001602090815260408083206001600160a01b038716845290915281205490919083811015610c1a5760405162461bcd60e51b815260206004820152602560248201527f45524332303a2064656372656173656420616c6c6f77616e63652062656c6f7760448201527f207a65726f0000000000000000000000000000000000000000000000000000006064820152608401610903565b6108458286868403610f84565b60003361082281858561116e565b83421115610c855760405162461bcd60e51b815260206004820152601d60248201527f4552433230566f7465733a207369676e617475726520657870697265640000006044820152606401610903565b604080517fe48329057bfd03d55e49b547132e39cffd9c1820ad7b9d4c5307691425d15adf60208201526001600160a01b038816918101919091526060810186905260808101859052600090610cff90610cf79060a001604051602081830303815290604052805190602001206117c9565b858585611832565b9050610d0a8161185a565b8614610d585760405162461bcd60e51b815260206004820152601960248201527f4552433230566f7465733a20696e76616c6964206e6f6e6365000000000000006044820152606401610903565b610d6281886116b8565b50505050505050565b610d7533346116ae565b565b83421115610dc75760405162461bcd60e51b815260206004820152601d60248201527f45524332305065726d69743a206578706972656420646561646c696e650000006044820152606401610903565b60007f6e71edae12b1b97f4d1f60370fef10105fa2faae0126114a169c64845d6126c9888888610df68c61185a565b6040805160208101969096526001600160a01b0394851690860152929091166060840152608083015260a082015260c0810186905260e0016040516020818303038152906040528051906020012090506000610e51826117c9565b90506000610e6182878787611832565b9050896001600160a01b0316816001600160a01b031614610ec45760405162461bcd60e51b815260206004820152601e60248201527f45524332305065726d69743a20696e76616c6964207369676e617475726500006044820152606401610903565b610ecf8a8a8a610f84565b50505050505050505050565b600082815260056020526040902060010154610ef681611361565b6108758383611534565b60408051808201909152600080825260208201526001600160a01b0383166000908152600960205260409020805463ffffffff8416908110610f4457610f446126ab565b60009182526020918290206040805180820190915291015463ffffffff8116825264010000000090046001600160e01b0316918101919091529392505050565b6001600160a01b038316610fff5760405162461bcd60e51b8152602060048201526024808201527f45524332303a20617070726f76652066726f6d20746865207a65726f2061646460448201527f72657373000000000000000000000000000000000000000000000000000000006064820152608401610903565b6001600160a01b03821661107b5760405162461bcd60e51b815260206004820152602260248201527f45524332303a20617070726f766520746f20746865207a65726f20616464726560448201527f73730000000000000000000000000000000000000000000000000000000000006064820152608401610903565b6001600160a01b0383811660008181526001602090815260408083209487168084529482529182902085905590518481527f8c5be1e5ebec7d5bd14f71427d1e84f3dd0314c0f7b2291e5b200ac8c7c3b925910160405180910390a3505050565b6001600160a01b038381166000908152600160209081526040808320938616835292905220546000198114611168578181101561115b5760405162461bcd60e51b815260206004820152601d60248201527f45524332303a20696e73756666696369656e7420616c6c6f77616e63650000006044820152606401610903565b6111688484848403610f84565b50505050565b6001600160a01b0383166111ea5760405162461bcd60e51b815260206004820152602560248201527f45524332303a207472616e736665722066726f6d20746865207a65726f20616460448201527f64726573730000000000000000000000000000000000000000000000000000006064820152608401610903565b6001600160a01b0382166112665760405162461bcd60e51b815260206004820152602360248201527f45524332303a207472616e7366657220746f20746865207a65726f206164647260448201527f65737300000000000000000000000000000000000000000000000000000000006064820152608401610903565b6001600160a01b038316600090815260208190526040902054818110156112f55760405162461bcd60e51b815260206004820152602660248201527f45524332303a207472616e7366657220616d6f756e742065786365656473206260448201527f616c616e636500000000000000000000000000000000000000000000000000006064820152608401610903565b6001600160a01b03848116600081815260208181526040808320878703905593871680835291849020805487019055925185815290927fddf252ad1be2c89b69c2b068fc378daa952ba7f163c4a11628f55a4df523b3ef910160405180910390a3611168848484611882565b610a48813361188d565b60008281526005602090815260408083206001600160a01b038516845290915290205460ff166109165760008281526005602090815260408083206001600160a01b03851684529091529020805460ff191660011790556113c93390565b6001600160a01b0316816001600160a01b0316837f2f8788117e7eff1d82e926ec794901d17c78024a50270940304540a733656f0d60405160405180910390a45050565b6000306001600160a01b037f00000000000000000000000000000000000000000000000000000000000000001614801561146657507f000000000000000000000000000000000000000000000000000000000000000046145b1561149057507f000000000000000000000000000000000000000000000000000000000000000090565b50604080517f00000000000000000000000000000000000000000000000000000000000000006020808301919091527f0000000000000000000000000000000000000000000000000000000000000000828401527f000000000000000000000000000000000000000000000000000000000000000060608301524660808301523060a0808401919091528351808403909101815260c0909201909252805191012090565b60008281526005602090815260408083206001600160a01b038516845290915290205460ff16156109165760008281526005602090815260408083206001600160a01b0385168085529252808320805460ff1916905551339285917ff6391f5c32d9c69d2a47ea670b442974b53935d1edc7fd64eb21e047a839171b9190a45050565b8154600090818160058111156116115760006115d284611902565b6115dc9085612698565b600088815260209020909150869082015463ffffffff1611156116015780915061160f565b61160c816001612685565b92505b505b8082101561165e57600061162583836119ea565b600088815260209020909150869082015463ffffffff16111561164a57809150611658565b611655816001612685565b92505b50611611565b80156116985761168186611673600184612698565b600091825260209091200190565b5464010000000090046001600160e01b031661169b565b60005b6001600160e01b03169695505050505050565b6109168282611a05565b6001600160a01b038281166000818152600860208181526040808420805485845282862054949093528787167fffffffffffffffffffffffff00000000000000000000000000000000000000008416811790915590519190951694919391928592917f3134e8a2e6d97e929a7e54011ea5485d7d196dd5f0ba4d4ef95803e8e3fc257f9190a4611168828483611a9c565b600063ffffffff8211156117c55760405162461bcd60e51b815260206004820152602660248201527f53616665436173743a2076616c756520646f65736e27742066697420696e203360448201527f32206269747300000000000000000000000000000000000000000000000000006064820152608401610903565b5090565b600061077c6117d661140d565b836040517f19010000000000000000000000000000000000000000000000000000000000006020820152602281018390526042810182905260009060620160405160208183030381529060405280519060200120905092915050565b600080600061184387878787611bd9565b9150915061185081611c9d565b5095945050505050565b6001600160a01b03811660009081526006602052604090208054600181018255905b50919050565b610875838383611e02565b60008281526005602090815260408083206001600160a01b038516845290915290205460ff16610916576118c081611e34565b6118cb836020611e46565b6040516020016118dc9291906126c1565b60408051601f198184030181529082905262461bcd60e51b8252610903916004016123e9565b60008160000361191457506000919050565b6000600161192184612027565b901c6001901b9050600181848161193a5761193a612742565b048201901c9050600181848161195257611952612742565b048201901c9050600181848161196a5761196a612742565b048201901c9050600181848161198257611982612742565b048201901c9050600181848161199a5761199a612742565b048201901c905060018184816119b2576119b2612742565b048201901c905060018184816119ca576119ca612742565b048201901c90506109cc818285816119e4576119e4612742565b046120bb565b60006119f96002848418612758565b6109cc90848416612685565b611a0f82826120d1565b6002546001600160e01b031015611a8e5760405162461bcd60e51b815260206004820152603060248201527f4552433230566f7465733a20746f74616c20737570706c79207269736b73206f60448201527f766572666c6f77696e6720766f746573000000000000000000000000000000006064820152608401610903565b611168600a612198836121a4565b816001600160a01b0316836001600160a01b031614158015611abe5750600081115b15610875576001600160a01b03831615611b4c576001600160a01b03831660009081526009602052604081208190611af9906122f8856121a4565b91509150846001600160a01b03167fdec2bacdd2f05b59de34da9b523dff8be42e5e38e818c82fdb0bae774387a7248383604051611b41929190918252602082015260400190565b60405180910390a250505b6001600160a01b03821615610875576001600160a01b03821660009081526009602052604081208190611b8290612198856121a4565b91509150836001600160a01b03167fdec2bacdd2f05b59de34da9b523dff8be42e5e38e818c82fdb0bae774387a7248383604051611bca929190918252602082015260400190565b60405180910390a25050505050565b6000807f7fffffffffffffffffffffffffffffff5d576e7357a4501ddfe92f46681b20a0831115611c105750600090506003611c94565b6040805160008082526020820180845289905260ff881692820192909252606081018690526080810185905260019060a0016020604051602081039080840390855afa158015611c64573d6000803e3d6000fd5b5050604051601f1901519150506001600160a01b038116611c8d57600060019250925050611c94565b9150600090505b94509492505050565b6000816004811115611cb157611cb161277a565b03611cb95750565b6001816004811115611ccd57611ccd61277a565b03611d1a5760405162461bcd60e51b815260206004820152601860248201527f45434453413a20696e76616c6964207369676e617475726500000000000000006044820152606401610903565b6002816004811115611d2e57611d2e61277a565b03611d7b5760405162461bcd60e51b815260206004820152601f60248201527f45434453413a20696e76616c6964207369676e6174757265206c656e677468006044820152606401610903565b6003816004811115611d8f57611d8f61277a565b03610a485760405162461bcd60e51b815260206004820152602260248201527f45434453413a20696e76616c6964207369676e6174757265202773272076616c60448201527f75650000000000000000000000000000000000000000000000000000000000006064820152608401610903565b6001600160a01b0383811660009081526008602052604080822054858416835291205461087592918216911683611a9c565b606061077c6001600160a01b03831660145b60606000611e55836002612790565b611e60906002612685565b67ffffffffffffffff811115611e7857611e786127a7565b6040519080825280601f01601f191660200182016040528015611ea2576020820181803683370190505b5090507f300000000000000000000000000000000000000000000000000000000000000081600081518110611ed957611ed96126ab565b60200101906001600160f81b031916908160001a9053507f780000000000000000000000000000000000000000000000000000000000000081600181518110611f2457611f246126ab565b60200101906001600160f81b031916908160001a9053506000611f48846002612790565b611f53906001612685565b90505b6001811115611fd8577f303132333435363738396162636465660000000000000000000000000000000085600f1660108110611f9457611f946126ab565b1a60f81b828281518110611faa57611faa6126ab565b60200101906001600160f81b031916908160001a90535060049490941c93611fd1816127bd565b9050611f56565b5083156109cc5760405162461bcd60e51b815260206004820181905260248201527f537472696e67733a20686578206c656e67746820696e73756666696369656e746044820152606401610903565b600080608083901c1561203c57608092831c92015b604083901c1561204e57604092831c92015b602083901c1561206057602092831c92015b601083901c1561207257601092831c92015b600883901c1561208457600892831c92015b600483901c1561209657600492831c92015b600283901c156120a857600292831c92015b600183901c1561077c5760010192915050565b60008183106120ca57816109cc565b5090919050565b6001600160a01b0382166121275760405162461bcd60e51b815260206004820152601f60248201527f45524332303a206d696e7420746f20746865207a65726f2061646472657373006044820152606401610903565b80600260008282546121399190612685565b90915550506001600160a01b038216600081815260208181526040808320805486019055518481527fddf252ad1be2c89b69c2b068fc378daa952ba7f163c4a11628f55a4df523b3ef910160405180910390a361091660008383611882565b60006109cc8284612685565b825460009081908181156121f1576121c187611673600185612698565b60408051808201909152905463ffffffff8116825264010000000090046001600160e01b03166020820152612206565b60408051808201909152600080825260208201525b905080602001516001600160e01b0316935061222684868863ffffffff16565b925060008211801561223e5750805163ffffffff1643145b156122835761224c83612304565b61225b88611673600186612698565b80546001600160e01b03929092166401000000000263ffffffff9092169190911790556122ee565b86604051806040016040528061229843611749565b63ffffffff1681526020016122ac86612304565b6001600160e01b0390811690915282546001810184556000938452602093849020835194909301519091166401000000000263ffffffff909316929092179101555b5050935093915050565b60006109cc8284612698565b60006001600160e01b038211156117c55760405162461bcd60e51b815260206004820152602760248201527f53616665436173743a2076616c756520646f65736e27742066697420696e203260448201527f32342062697473000000000000000000000000000000000000000000000000006064820152608401610903565b60006020828403121561239557600080fd5b81357fffffffff00000000000000000000000000000000000000000000000000000000811681146109cc57600080fd5b60005b838110156123e05781810151838201526020016123c8565b50506000910152565b60208152600082518060208401526124088160408501602087016123c5565b601f01601f19169190910160400192915050565b80356001600160a01b038116811461243357600080fd5b919050565b6000806040838503121561244b57600080fd5b6124548361241c565b946020939093013593505050565b60008060006060848603121561247757600080fd5b6124808461241c565b925061248e6020850161241c565b9150604084013590509250925092565b6000602082840312156124b057600080fd5b5035919050565b600080604083850312156124ca57600080fd5b823591506124da6020840161241c565b90509250929050565b6000602082840312156124f557600080fd5b6109cc8261241c565b803560ff8116811461243357600080fd5b60008060008060008060c0878903121561252857600080fd5b6125318761241c565b9550602087013594506040870135935061254d606088016124fe565b92506080870135915060a087013590509295509295509295565b600080600080600080600060e0888a03121561258257600080fd5b61258b8861241c565b96506125996020890161241c565b955060408801359450606088013593506125b5608089016124fe565b925060a0880135915060c0880135905092959891949750929550565b600080604083850312156125e457600080fd5b6125ed8361241c565b91506124da6020840161241c565b6000806040838503121561260e57600080fd5b6126178361241c565b9150602083013563ffffffff8116811461263057600080fd5b809150509250929050565b600181811c9082168061264f57607f821691505b60208210810361187c57634e487b7160e01b600052602260045260246000fd5b634e487b7160e01b600052601160045260246000fd5b8082018082111561077c5761077c61266f565b8181038181111561077c5761077c61266f565b634e487b7160e01b600052603260045260246000fd5b7f416363657373436f6e74726f6c3a206163636f756e74200000000000000000008152600083516126f98160178501602088016123c5565b7f206973206d697373696e6720726f6c652000000000000000000000000000000060179184019182015283516127368160288401602088016123c5565b01602801949350505050565b634e487b7160e01b600052601260045260246000fd5b60008261277557634e487b7160e01b600052601260045260246000fd5b500490565b634e487b7160e01b600052602160045260246000fd5b808202811582820484141761077c5761077c61266f565b634e487b7160e01b600052604160045260246000fd5b6000816127cc576127cc61266f565b50600019019056fea2646970667358221220a137b530ee6c937a2ea31cfb0c92c770df4601cc648871a5be21cbb833989e6864736f6c63430008110033",
  "linkReferences": {},
  "deployedLinkReferences": {}
}